:020000040800F2
:10000000C809002035220008F1200008F32000086C
:10001000F5200008F7200008F92000080000000083
:10002000000000000000000000000000FB200008AD
:10003000FD20000800000000FF200008012100084A
:1000400059220008592200085922000859220008A4
:100050005922000859220008592200085922000894
:100060005922000859220008592200085922000884
:100070005922000859220008592200085922000874
:1000800059220008000000005922000859220008E7
:100090005922000859220008592200085922000854
:1000A0005922000859220008592200085922000844
:1000B0005922000859220008592200085922000834
:1000C0005922000859220008592200085922000824
:1000D0005922000859220008592200080721000867
:1000E0005922000859220008592200085922000804
:1000F0005922000859220008592200080000000077
:1001000000000000592200080000000059220008E9
:100110005922000800000000592200085922000856
:1001200059220008592200085922000859220008C3
:1001300059220008000000000000000059220008B9
:1001400059220008592200080000000000000000A9
:10015000000000000000000000000000000000009F
:10016000000000000000000000000000592200080C
:1001700059220008000000000000000000000000FC
:1001800000000000592200080000000000000000EC
:10019000000000000000000000000000000000005F
:1001A0000000000000000000592200085922000849
:1001B00059220008592200085922000800000000B6
:1001C00000000000592200080000000000000000AC
:1001D0005922000859220008DFF858190220086047
:1001E000704770B504462DA100F0EAFD0025DFF848
:1001F000486906E030684006FCD5E8B26D1C215C19
:10020000F160204600F008FEE9B28142F2D370BDF1
:1002100038B504460A2904F1D00533D194F8100109
:10022000002839D094F810210021A9540123A3708B
:1002300000F085FB10B900F07DFB38B1294604F1D0
:10024000A80000F0F3FD0120607117E014A100F098
:1002500073FB20B90FF6001100F06EFB38B1294690
:1002600004F1880000F0E2FD0120207106E029463B
:1002700004F1480000F0DAFD0120E070002184F86C
:10028000101131BD0D2907D0080005D094F81001D8
:10029000421C84F81021295431BD00000D0A0000D1
:1002A0002B00000038B5044604F1C805207810B1D1
:1002B000012815D031BD0021E17020716171A0705D
:1002C0006178012919D104F10800FFF78AFF0021A4
:1002D00084F81011A171012029686960207031BD76
:1002E000A179012902D1002020706070686820B9CE
:1002F0000221A17060700021217031BD00210170C8
:100300004FF4FA634170C0F8C83070472DE9FE43DE
:100310000978012944D0044604F1A80094F81C216E
:100320000FF69821DFF81468162A04F1880780A5D3
:1003300036D8DFE812F04B005300C502C502730047
:100340007B008F009700A800810289029C02A60210
:10035000C400CC001902440262026A021700C502FE
:10036000C5023600D4F84C02002819D194F83F0297
:10037000401C84F83F02C0B2012805DD0021DFF8EF
:10038000C00700F0B5FD07E04FF47A7269A100F0F4
:10039000C8FA162084F81C014FF4FA61C4F84C1214
:1003A0008EE26279012A0CD100F0BCFD48B1012037
:1003B0000021A07184F81C113221DFF8880700F0B9
:1003C000DDFDA0780228EBD1132175E24FF47A729B
:1003D0000FF28C7100F0A5FA01204FE26279012A38
:1003E00014D100F09FFD78B100F073FA38460FF297
:1003F0007C7100F097FD002807BF042184F81C11D0
:10040000082084F81C0101E000F083FA60790228DA
:1004100003D1002184F81C11617051E24FF47A720B
:100420000FF2547100F07DFA052027E200F07AFD0A
:1004300040B10120A07100210620617084F81C01E8
:10044000E17102E0042000F064FA60790228E4D14E
:10045000042131E24FF496720FF2307100F061FA2C
:1004600007200BE26279012A08D100F05BFD10B190
:1004700000F046FA02E0062000F04BFA607902280C
:10048000CBD1062118E20FF2107100F032FA18B148
:1004900000F025FA0920F1E10FF20C7100F029FAC1
:1004A00018B100F01CFA0B20E8E10FF20C7100F01B
:1004B00020FA0028B1D000F012FA0D20DEE14FF44E
:1004C0007A720FF2047100F02CFA0E20D6E16279F4
:1004D000012A40F0448100F025FD002800F03B8116
:1004E0000FF2F86100F0EEF904F5907820B900F011
:1004F00003FA002840F0FE800FF2E86100F0F9F9FD
:1005000038B100F0E2F900F009FA024604F59371FF
:1005100009E1A7A104F1480000F052FD60B90220F2
:1005200030610322A3A106F1140000F057FDEAE0B8
:1005300000000000415400000FF2B06100F0C2F969
:1005400004F5A07818B900F0D7F9002854D10FF2BB
:10055000A86100F0CEF904F5A47948B100F0B5F92E
:1005600000F0DCF902464946404600F043FDDDE07C
:100570000FF2906100F0A6F958B92946484600F0FC
:100580001FFD30B1494606F1140000F04FFC48460B
:10059000B6E00FF2786100F0ACF958B13946484640
:1005A00000F044FC484600F037FC024604F24F11CC
:1005B0004846B9E00FF25C6100F084F904F5B478C4
:1005C00018B900F099F9002816D10FF2546100F023
:1005D00090F938B100F079F900F0A0F9024604F280
:1005E0007311A0E00FF2446100F06CF904F5C478D7
:1005F00018B900F081F900287CD10FF2406100F0B9
:1006000078F938B100F061F900F088F9024604F297
:10061000951188E00FF2346100F054F904F5D478B4
:1006200018B900F069F9002864D10FF2306100F0C8
:1006300060F950B100F049F900F070F9024604F594
:10064000DA71404600F0D6FC70E00FF2206100F055
:1006500039F904F5E47818B900F04EF9002849D1C9
:100660000FF2146100F045F938B100F02EF900F0F6
:1006700055F9024604F5E97155E00FF2086100F002
:1006800021F904F5F47818B900F036F9002831D1D1
:100690000FF2006100F02DF950B100F016F900F0F2
:1006A0003DF9024604F5FA71404600F0A3FC3DE036
:1006B0000FF2F05100F006F904F2152818B900F015
:1006C0001BF9002816D10FF2EC5100F012F938B1E5
:1006D00000F0FBF800F022F9024604F2212122E0AA
:1006E0000FF2E05100F0EEF804F21D2878B900F0A6
:1006F00003F960B1414606F1140000F097FB404653
:1007000000F08AFB30610F2084F81C0120E00FF21A
:10071000C05100F0EEF878B100F0D7F800F0FEF824
:10072000024604F22521404600F064FC04F1480032
:1007300029780170082109E006220FF2144106F120
:10074000140000F04BFC052030610F2184F81C11CF
:1007500000F0BFF803E00D2184F81C11607060798F
:10076000022823D10D21A7E00FF2705106F15400A9
:1007700000F026FB00F0C2F932696BA1684600F078
:1007800049FC6AA106F1540000F01AFB694600F02A
:1007900017FB4FF47A7206F1540100F0C2F806F12B
:1007A000540029780170102184F81C1188E000BFE2
:1007B000414A00004F4B0000F068401CF0605CA70D
:1007C00000F092F80028F7D000F08EF860B104F144
:1007D00048002978017000200121A1716070112169
:1007E00084F81C11E07103E00F2184F81C11607083
:1007F0006079022864D10F215EE04FF4967206F111
:10080000140100F08EF8122038E06279012A0ED12E
:1008100000F088FB38B10120A07100210820617030
:1008200084F81C0102E0082000F073F8E17160799F
:10083000022845D111213FE04FF4FA720FF2AC418A
:1008400000F06FF80A2019E0607901280AD10FF250
:10085000B44100F04EF810B100F052F802E0092067
:1008600000F057F8607902282AD1092124E04FF4DA
:100870007A720FF2A04100F054F80C2084F81C01A9
:100880001EE06079012813D10FF2984100F031F891
:1008900058B194F894003070012100220820A17111
:1008A000627084F81C01E27102E00B2000F031F864
:1008B0006079022804D10B21002084F81C1160709B
:1008C000BDE8F783384600F07BBB3946404600F070
:1008D000ADBA01200021A0716170E1717047012063
:1008E000A071002161707047394604F1480000F0A2
:1008F00019BB384600F016BB2946404600F060BBE5
:100900000120A07100210820617084F81C01E171B0
:100910007047002184F81C0161707047404600F068
:100920007BBA20462AE00000256400002C0000006D
:100930003E0000000FF21821284600F0F3BA2846C6
:100940000FF2784100F0EEBA38B5044604F58E7027
:10095000132104F23D2501700022EA702A714270D1
:1009600082702A706A70AA71C2702046FFF7C6FCB6
:100970000021A9702046BDE8324020E038B5044689
:100980001546607848B90122627004F1080000F051
:100990004DFA04F1C8000560456031BDD0F8CC10B7
:1009A00021B1D0F8CC10491EC0F8CC10D0F84C12B0
:1009B00021B1D0F84C12491EC0F84C127047F8B55E
:1009C00090B0054600F09EF80E220FF2643100F060
:1009D0008FF805F5A47100F08EF852A7394600F0A3
:1009E000EFF905F5B474204600F016FA4EA600287B
:1009F0000CBF3146214600F07EF84CA100F07BF898
:100A000005F5C474204600F007FA00280CBF3146F3
:100A1000214600F070F84C4C694604F1400000F0AB
:100A200005FA0E220FF2183100F062F805F5907108
:100A300000F061F8394600F0C3F905F5A07100F047
:100A40005AF8014604F5807000F0F0F90E220FF21A
:100A5000003100F04DF805F5D47100F04CF834A6E3
:100A600000F04CF8694604F1800000F0DFF90E2236
:100A70000FF2EC2100F03CF805F5E47100F03BF8D2
:100A800000F03CF8694604F1C00000F0CFF90D22F7
:100A90000FF2DC2100F02CF805F5F47100F02BF8D2
:100AA000394600F08DF905F2152100F024F80146D1
:100AB00004F5E07000F0BAF90E220FF2C42100F044
:100AC00017F805F21D2100F016F800F017F8694636
:100AD00004F5C07000F0AAF91C220FF2B42100F056
:100AE00007F8694604F5A07000F0A0F911B0F0BD58
:100AF000684600F073BA684600F062B9314600F00B
:100B00005FB9000080B5032205A1104800F066FA25
:100B1000BDE808405FF00D02A4A10B4800F05EBAEA
:100B200041540000222C0000000000002C000000B6
:100B300022000000180400481C480040FC0400206B
:100B400000200008F0020020FC0200209005002098
:100B50004552524F52000000434F4E4E4543540001
:100B600041542B5142545057523F00002B51425494
:100B70005057523A2031000041542B5142544346C1
:100B8000473D2270616972222C30000041542B5184
:100B900042545057523D31002B514254494E443A31
:100BA00020227061697222002B514254494E443A0E
:100BB0002022636F6E6E22002B514254494E443AFC
:100BC000202272656376220041542B5153505052BB
:100BD0004541443D322C313530300000414A2B49EB
:100BE000503F0000414A2B49503D0000414A2B50E4
:100BF0004F52543F00000000414A2B504F52543D89
:100C000000000000414A2B41504E3F00414A2B4119
:100C1000504E3D00414A2B41504E555345523F00E6
:100C2000414A2B41504E555345523D00414A2B41BC
:100C3000504E5041535357443F000000414A2B410E
:100C4000504E5041535357443D000000414A2B55EC
:100C50005345524E414D453F00000000414A2B553F
:100C60005345524E414D453D00000000414A2B5036
:100C700041535357443F0000414A2B50415353576F
:100C8000443D0000414A2B46494C454E414D453FAD
:100C900000000000414A2B46494C454E414D453D20
:100CA00000000000414A2B46494C4553495A453FF4
:100CB00000000000414A2B46494C4553495A453DE6
:100CC00000000000414A2B504154483F0000000002
:100CD000414A2B504154483D0000000041542B51E3
:100CE00053505053454E443D0000000041542B5199
:100CF000425450414952434E463D312C2235353500
:100D0000352200002B51425450414952434E463A3D
:100D10002031000041542B514254414350543D3145
:100D2000000000002B514254414350543A203100FE
:100D300041542B5149435347503D312C2200000070
:100D400041542B514654504F50454E3D2200000017
:100D500041542B51465450555345523D22000000FA
:100D600041542B51465450504153533D22000000F2
:100D700041542B514654504745543D220000000039
:100D800041542B51465450504154483D22000000DC
:100D900041542B514654504346473D342C222F5248
:100DA000414D2F64776C2E747874220061742B711E
:100DB000696667636E743D30000000004F4B0000B1
:100DC000034600E05B1C1A78002AFBD111F801CB26
:100DD00083F800C013F8012B002AF7D1704730B414
:100DE000002513E050F8042BD30744BFA9F10103F9
:100DF0009A18091F042942F8045BFAD213468C079B
:100E000044BF15809B1CC90748BF1D7050F8041BC8
:100E10000029E7D130BC704700F1010310F8011B35
:100E200011B110F8011BFBE7C01A70475FEA000C14
:100E300011F8012B00F8012B12B111F8012BF9E781
:100E400060467047BFF34F8F314932480A6802F459
:100E5000E06202430A60BFF34F8F00BFFDE738B581
:100E6000044688B0207810B101280AD034E094F804
:100E70004810012930D101202070002284F8482038
:100E80002AE0611C684600F0F1F808B39DF80800FC
:100E9000F0B90198204DB0F5803F03D301212846D9
:100EA00000F026F80198B0F5005F11D3616C88421C
:100EB0000AD14FF46041684600F092F9606C9DF8E9
:100EC00000104118616403E00121284600F010F889
:100ED0000020207084F8480009B030BD00F14801BE
:100EE00000220A704A7002704FF400524264704748
:100EF0000A48C1F1AA01016002E00849AB2008607C
:100F00001C21074800F089F9FFF79CFF00BF000093
:100F10000CED00E00400FA05002000080025004068
:100F20000000010870B50D462C7834B970BD11F879
:100F3000013F1678B34206D0401C214600F088F9E4
:100F400028B101462A4612F8013F002BEFD170BDAF
:100F500070B5049E059D069C0172468043604572F3
:100F60008472002101701146BDE8704042884170D2
:100F7000406809B18261704782627047427A51438A
:100F8000642391FBF3F18172704710B50446207819
:100F9000A8B9E07A627A401CE072C0B2904205D3F0
:100FA00001212046FFF7E2FF0022E272E07AA17AF7
:100FB000884204D12046BDE810400021D6E710BD8C
:100FC00010F8012B11F8013B0AB19A42F8D0D01A5F
:100FD00070470268531C0360117070474AB10000EB
:100FE00011F8013B521E00F8013B1CBF11F8013BF8
:100FF000F8E7704762B181423ABF53189842FFF751
:10100000EFBF801813F8011D521E00F8011DF9D121
:10101000704700000CB430B583B00A4606A90291AF
:10102000044600250194009502AB01A908487844C4
:101030001E3000F024F9019A157000284EBF0446B6
:101040000198041B204603B030BC5DF80CFB00BFC8
:1010500083FFFFFF0A0018BF00F0A0B970470A0025
:1010600003D08906090E00F09DB970472DE9F04FB5
:1010700089B004468A4600F0B0F802220AF1010164
:1010800000F0A8F800F0B4F9054601A800F0B0F9A6
:10109000207000F0A2F803216846FFF7DBFF04226E
:1010A0000AF1030101A801AE00F0B4F970789DF8CF
:1010B00004108DF801008DF80010CDF810D06846AE
:1010C00000F096F94519B078F1788DF800004FF0EE
:1010D000000B04984170684600F08AF9074601A8A1
:1010E00000F086F9606000F078F802220AF107014A
:1010F00000F070F800F07CF93D44451901A800F0BB
:1011000077F92072042104F10C00FFF7A8FFEDB27B
:10111000D8460DF1180940E00827A1EB080108297D
:10112000BCBFC8EB4007FFB200F057F80AEB08005D
:1011300000F109013A4600F04DF8092106A8FFF731
:1011400089FF2946002505970598401E401B0DF193
:101150001902305C50550F46059B9B1E5B1BF25CD1
:1011600009F805208DF80020AD1C049A50706846DF
:1011700000F03EF9C119082DE6DB0D4606A800F087
:1011800037F904F10C015FFA8BF241F822000BF100
:10119000010B08F108005FFA80F8207841008845CB
:1011A000BADB0931C9B28A4400F017F8022251466D
:1011B00000F010F800F01CF920770020217F607704
:1011C00051FA85F1080604BF01216177607F09B0FB
:1011D000BDE8F08F01A800F01DB9092101A839E789
:1011E00038B5044660680D1805F10065154885425C
:1011F00004D104F10C02012100F0A0FA04F10C0268
:101200000121284600F09AFA04F1140205F10800C1
:10121000BDE83840012100F091BA70B504460D4692
:10122000094800260AE0401EFDD104EBC620400319
:101230000121000E00F070FB761C0448AE42F2DB88
:1012400070BD00000000010840420F007F9698002A
:10125000C9B202788A421AB11CBF10F8012FF9E70F
:1012600018BF0020704770B505461C00084616469A
:1012700004D016F8011BA847641EFAD170BD2DE9F1
:10128000FC4383B08146884617461D4607E001238C
:101290003A4641464846FFF7E6FF80467F1C3878CD
:1012A000E0B12528F3D17978BF1C252912D058291F
:1012B00058D0632915D0642918BF692917D06F2920
:1012C00050D0702953D0732957D0752918BF782969
:1012D00048D0E4E74046C8478046E0E705B0BDE8AF
:1012E000F083286850F8041B2860C9B2F2E7286828
:1012F00050F8046B2860002E03D52D214046C847C6
:10130000804664216F2908BF082205D041F02000E3
:10131000782814BF0A2210220B246429304602D1F7
:10132000002E48BF4042B0FBF2FC02FB1C003030F4
:10133000641EC3B23A2BA4BFA1F1510630180DF8B8
:1013400004005FEA0C0001D0002CECDC0DEB04067D
:10135000D4F10B044046BFD016F8011BC847641EE9
:10136000FAD1B9E7286850F8046B2860CAE7286802
:1013700050F8046B28607821C4E7286850F8046BA3
:1013800028603046FFF748FD04004046A4D016F818
:10139000011BC847641EFAD19EE70000002200F03E
:1013A000C9BA0000002200F0CFBAA0F130010A292A
:1013B00021BFA0F14102062A6138062801D201208E
:1013C000704700207047A0F14102062A38BF373825
:1013D0000AD3A0F16102062A38BF573804D3A0F11E
:1013E00030010A2902D23038C0B27047002070475D
:1013F00070B5044600250026A05DFFF7D6FF38B182
:10140000A05DFFF7E0FF761C082E00EB0515F3DB6F
:10141000284670BD01B55AB111F8013B521E00F8C3
:10142000013B03B1F8D111001CBF002200F082FA89
:1014300001BD00000901020003D4DFF8400481541B
:101440007047DFF83C3402F00F021A4402F8041C23
:101450007047DFF8301401E0DFF82C1481B00A681F
:1014600002430A60096808400090009801B0704784
:101470002DE9F84FDFF81444DFF814548EB04FF024
:10148000006020602968DFF80C6441F001012960E8
:10149000286800F0010000904FF080500099FFF79D
:1014A000DBFF6268DFF8F0034FF6FF010A400243FA
:1014B000626000F05CF918216846FFF773FF202096
:1014C000FFF7C7FF0220FFF7C4FF0220B0628021B0
:1014D000B1620120002100900191049130466946DB
:1014E00000F04CFA022000F01EF9802000F01BF9F9
:1014F000202106A8FFF756FF18216846FFF752FF84
:101500004FF48020FFF7A8FF0220FFF7A2FF4FF45F
:10151000806100910222019200210291039100F06A
:10152000FBF84FF400610091022200210291039127
:101530000192012100F0F0F8606800212720FFF7F8
:1015400079FFD64AD64C8021116000234FF4E13157
:10155000079106930C210B91089309930A930C931E
:101560000D9306A9204600F087FAA06820F060409D
:10157000A060A06820F06060A060216821F00051A8
:101580002160606820F490406060A06820F02A002C
:10159000A060216841F001012160E0698002FCD572
:1015A000E0694002F9D56846216841F020012160D8
:1015B00000220021002380E80E00296BB948BA4CB4
:1015C00041F40041296300927F210191FF220292A0
:1015D000694600F0C1FA4CF6CC47276045F2555AEF
:1015E000C4F800A00620606040F6FF7BC4F810B08D
:1015F000C4F808B0E06810F0070FFBD14AF6AA253E
:10160000AA4825604FF47A720168B1FBF2F0401EDF
:10161000B0F1807F0ED2DFF89882C8F804000F2165
:101620004FF0FF30FFF706FF0020C8F80800072141
:10163000C8F8001000F016F9DFF87882DFF8789229
:10164000404600F0D7FA00200A2180220290019142
:1016500000923346002200214846FFF779FC14210E
:101660004846FFF78BFC4FF4FA61404600F0F2FA6F
:101670002760C4F800A006206060C4F808B02560A8
:10168000AC218E488E4FDFF83CA2016008F2A12603
:1016900000F032F91C218C48FFF7BFFD08F51670E9
:1016A0000090D8F8B80218B906215046FFF720FC80
:1016B000F07C20B14846FFF768FC0020F0744046FB
:1016C000FEF7F0FD00994046FEF720FE0098FFF778
:1016D000C6FB256030780128E3D1B86840F040406F
:1016E000B8604CF2FA31396050461C21FFF795FD85
:1016F0004FF4005B0BF1006202F5604201210BF137
:10170000006000F01BF80BF1080BBBF5803FF1D334
:101710005046FFF7F2FBC4E70491072205926946A1
:10172000304600F02BB90121009001910022029275
:10173000039204926946304600F020B92DE9F04149
:1017400005460E4690460027604C0CE008EBC700AB
:1017500058F837204368C4E900232946002000F0E8
:1017600081FA08357F1CB742F0DBBDE8F08138B55F
:10177000574801680909090141F00801016055480D
:10178000016821F4807101605349086840F4807059
:10179000086008684005FCD54A68504C22F0FE42BB
:1017A00042F080424A60E06840F00100E060E0689A
:1017B0008007FCD54A48026842F480720260CB6818
:1017C0004848034043F4AA4343F03203CB60C8685F
:1017D00040F08070C8600A6842F080720A60086851
:1017E0008001FCD58A6842F003028A60886820F094
:1017F000F00040F080008860886800F00C000C2841
:10180000FAD13948026842F08072026000223748FB
:10181000036843F00103036042604268642AFCD31A
:101820008868334D20F0F0008860886820F4E0601C
:10183000886028468A6822F460528A6000F0A6FA1E
:10184000284600F0AFFAA06820F4407040F4007021
:10185000A060A06840F40040A060216821F0300141
:10186000216031BD10B5234C1248022222614FF491
:10187000617100F0EFF90221216010BD00E400E089
:1018800018ED00E04C1002405810024008ED00E056
:1018900060100240000400480003FA0504E100E083
:1018A0000048004000280040003000402C0000208C
:1018B00010E000E030000020F00200200025004091
:1018C000102002400020000800000108B805002098
:1018D000002002408070004000100240881002404A
:1018E000007000400C80FFF9FCED00E0001000E00B
:1018F00080FE210A1804004880B500F0E9F9054887
:10190000816841F0404181604CF2FA32026001206E
:1019100002BD00001020024000B585B00122002366
:101920000291039004920193694601A800F042FAE3
:1019300005B000BD4018491C1CBFB1F1010100F801
:10194000012DF9D17047000000B500BF1300964685
:101950009446103928BFA0E80C50FAD85FEA417CC1
:1019600028BF0CC048BF40F8042BC90728BF20F887
:10197000022B48BF00F8012B00BD0000F0B50B465C
:101980000246186890FAA0F0B0FA80F60F240325FA
:101990003EE0090A00F04DF8576A00F051F8506235
:1019A00035E00120B040014031D05868176800F0A0
:1019B00053F84FEA4C0E00FA0EF0384310605868A6
:1019C000012818BF022809D19868976800F044F8E8
:1019D0004FEA4C0E00FA0EF03843906091FAA1FCE9
:1019E0001869D76800F03AF84FEA4C0E00FA0EF08A
:1019F0003843D0605868022809D15869B1F5807F12
:101A0000C7D200F016F8176A00F01AF81062761CB8
:101A1000196831FA06F0C4D15868012818BF0228A5
:101A200005D15468D8688C4341432143516000205C
:101A3000F0BD91FAA1FCBCFA8CFC91FAA1F17047BF
:101A40004FEA8C0CB1FA81F104FA0CFC890027EA08
:101A50000C0788403843704791FAA1FCBCFA8CFC13
:101A60004FEA4C0C05FA0CFC27EA0C0791FAA1FC92
:101A7000BCFA8CFC7047000070B504460E46206826
:101A80000125C1075AD422683148B1680240306943
:101A90000A4371690243F0690A43024322606168A4
:101AA000F06821F4405101436160A168B06921F4FC
:101AB00040710143A16022498C4208BF032008D035
:101AC00020498C4208BF0C2003D01F48844203D118
:101AD000302000F023FA05E01C48844228D1C020C1
:101AE00000F071FA00281CBF7168002920D032680C
:101AF00000250C2A1CD2174BD2B253F82220F369CE
:101B0000B0FBF2F04A08B3F5004F0CD102EB4002F3
:101B1000B2FBF1F080B24FF6F0710140C0F3420029
:101B20000143E16004E01018B0FBF1F080B2E06026
:101B3000E16A3088090940EA0111E162284670BD76
:101B4000003801400044004000480040004C004084
:101B5000F369FFEF6021000870B504460D46CA2105
:101B6000616253226262012600F01DF8012816D03E
:101B7000A169286821F040010143A1610026216983
:101B8000A868C90B40EAC13121612169686821F464
:101B9000FE0141EA004121616FF08001E160FF2018
:101BA0006062304670BD81B04FF47A7100910023BD
:101BB000C1684A0619D44FF0FF31C160C26892096A
:101BC00002F001020DE00A490968CA0302D5009932
:101BD000491E0091C2680099920902F0010201B900
:101BE0000123009909B1002AEDD0184601B07047D1
:101BF00010E000E010B504461448C4F8B802FEF73F
:101C0000EBFA2046FEF7A0FE04F51670BDE8104082
:101C1000FFF764B910B500F52C74A16811B1A16883
:101C2000491EA160216811B12268521E2260FEF790
:101C3000B5FE07480188491C01800288642A03DB3D
:101C4000012121710022028010BD0000A0BB0D0007
:101C5000C0050020C0F8B012D0F8B0120029FBD1A6
:101C6000704700002DE9F843424D064628780027CA
:101C7000012889461446984608BF022023D0012037
:101C8000287000F022F801001BD16F604846224600
:101C900043461EB900F04FF801270AE0012E18BF95
:101CA000022E06D1114600F052F8022E08BF4FF462
:101CB000802700F00AF827B12F490A6822EA0707AF
:101CC0000F6000212970BDE8F2834FF47A700FE0B5
:101CD0002B49CA680020002A00D4704710B5294A51
:101CE000294C0A600C60C968002948BF012010BD5A
:101CF00070B5054600F0F6F90646204C2068C10391
:101D000006D500F0EFF9801B8542F7D2032070BDA5
:101D100020684CF2FA31084006D016494A6802435E
:101D20004A602060012070BD2068C10744BF0120C7
:101D30002060002070BD10B50F490C6844F001040C
:101D40000C6040F8042BBFF36F8F036010BD10B51B
:101D5000094A136843F480231360EFF3108372B6CB
:101D6000402251F8044B40F8044B521EF9D183F342
:101D7000108810BD0C0000201420024010200240EA
:101D80000820024023016745AB89EFCD4FF47A72FA
:101D90000649B0FBF2F0401E486000238B6005202E
:101DA00008607047024908607047000010E000E0DA
:101DB0002C0000202DE9F843DFF854610446307808
:101DC0000128884608BF022056D00120307000F05C
:101DD00055F85FEA00094CD10020DFF838517060F7
:101DE0002968880529680DD521F4007129602868C3
:101DF000410505D5286820F48060286003210BE0A8
:101E0000012006E0480506D5296821F48061296093
:101E10000220307701E000213177206801280AD1C3
:101E2000606800F02FF800F029F88146686920F01A
:101E3000040068611BE04FF0FF30C8F80000A7689D
:101E400000E07F1CA068E168081887420FD2616833
:101E5000384600F023F800F011F88146686920F454
:101E6000FD705FEA09016861EBD0C8F8007000F00E
:101E700027F8002030704846BDE8F2834FF47A70AE
:101E8000FFF736BFC007244903D50A6842F00402B1
:101E90000A60086840F48030086070471E490A688C
:101EA000C00022F4FC7200F4FF6010430860086870
:101EB00040F0020008600A6842F480320A6070470D
:101EC00010B51348134A017F012918BF03290BD10C
:101ED000136843F400631360146824F4006414600E
:101EE000136843F400731360022918BF03290BD150
:101EF000116841F480511160136823F4805313601A
:101F0000116841F4806111600022027710BD000069
:101F10000C000020002002401420024070B5014651
:101F200000200329DFF89421DFF88C41DFF8845189
:101F30004FF4004313D12968DFF8846101F00301F5
:101F400041F44031891B29D0491E2AD0491E2DD089
:101F500000F069F800F075F8BDE8704081E00C29E8
:101F60000CD12968DFF85C6101F00C0141F44021DB
:101F7000891B13D0091F14D0091F0DE0302921D16E
:101F80002968DFF8446101F0300141F44011891BF8
:101F900004D0103905D0103908D00CE0BDE87040ED
:101FA00041E0216849050DD5104670BDA968890733
:101FB00008D5184670BD00F036F800F042F8BDE8CC
:101FC000704044E070BD80B50021C02825D1DFF805
:101FD000E400DFF8F830026802F0C00242F4400288
:101FE000D21A04D0403A05D0403A09D00EE000F0B1
:101FF0001AF811E000F013F80FD5DFF8C0100CE06C
:102000008068800709D54FF4004106E000F00BF826
:1020100000F017F800F01BF80146084602BD2648FC
:102020000068420570472B48006800F00C00082843
:1020300002D00C2802D002E02548704717E01F4864
:1020400070472449244A0968C1F3031104E0214977
:10205000224A0968C1F30221515C01F01F01C84006
:1020600070471C491D4A0968C1F3C221F4E710B545
:1020700000F016F80CBF1649104900F008F8C4F338
:102080004161FFE7491C4900B0FBF1F010BDC2F30C
:1020900006204143C3F30310401CB1FBF0F070472E
:1020A0000F48016802680368046801F0030103290E
:1020B0007047000088100240001002400024F40025
:1020C0000100030004000C00100030004000C000BC
:1020D00000127A0008100240E8210008502200088F
:1020E0000C10024001480068704700BF000000204B
:1020F0007047FEE7FEE7FEE7FEE770477047704770
:102100000748FFF787BD0748C169890607D50168F9
:10211000890604D5416A0248C9B2FEF779B870470A
:10212000300000200048004030B501688468421843
:10213000416802EB5103C90703D54C4401E0491C37
:1021400005D19A420AD012F9011B12F8015B00294D
:1021500004F8015BF3D4491EF7D5F2E70C3030BD2B
:102160000100000002000000040000000600000062
:10217000080000000A0000000C0000001000000031
:10218000200000004000000080000000000100006E
:1021900010B5074979441831064C7C44163404E0E4
:1021A0000A68081D114488470146A142F8D110BDB4
:1021B000080000002400000027ECFFFF9405000049
:1021C000300000200000000061FFFFFF90000000D1
:1021D000240000000000002002494FF00060086069
:1021E0007047000008ED00E0000000000000000063
:1021F00001020304060708090120C046002801D097
:10220000FFF7C6FFAFF300800020AFF30080FFF7B9
:102210002FF900F000F800F001B80000074638463A
:1022200000F002F8FBE70000202109032631182006
:10223000ABBEF9E70148804701480047D9210008B3
:1022400045220008AFF30080AFF30080FFF7D4FF12
:102250000000000001020304FFF7FEBFFC000010B5
:0E226000FD000001ED000001F0000224F4007A
:040000050800224588
:00000001FF
